8=FIX.4.4|9=000|35=8|49=SENDER|56=TARGET|34=7|52=20240101-12:00:00.000|37=ORD-1|17=EXEC-1|150=F|39=Z|55=EUR/USD|54=1|14=1000000|151=0|6=not-a-number|10=000
