8=FIX.4.4|9=130|35=W|49=SENDER|56=TARGET|34=2|52=20240101-12:00:00.000|55=EUR/USD|268=2|269=0|270=1.0921|271=1000000|269=1|270=1.0923|271=1000000|10=248
